{
    "_format": "hh-sol-artifact-1",
    "contractName": "StakeAcrossVaultProtocol",
    "sourceName": "contracts/StakeAcrossVaultProtocol.sol",
    "abi": [
        {
            "inputs": [
                {
                    "internalType": "address",
                    "name": "_router",
                    "type": "address"
                },
                {
                    "internalType": "address",
                    "name": "_link",
                    "type": "address"
                },
                {
                    "internalType": "contract IERC20",
                    "name": "_asset",
                    "type": "address"
                }
            ],
            "stateMutability": "nonpayable",
            "type": "constructor"
        },
        {
            "inputs": [
                {
                    "internalType": "address",
                    "name": "owner",
                    "type": "address"
                },
                {
                    "internalType": "uint256",
                    "name": "value",
                    "type": "uint256"
                }
            ],
            "name": "FailedToWithdrawEth",
            "type": "error"
        },
        {
            "inputs": [
                {
                    "internalType": "uint256",
                    "name": "providedIndex",
                    "type": "uint256"
                },
                {
                    "internalType": "uint256",
                    "name": "maxIndex",
                    "type": "uint256"
                }
            ],
            "name": "IndexOutOfBound",
            "type": "error"
        },
        {
            "inputs": [
                {
                    "internalType": "address",
                    "name": "router",
                    "type": "address"
                }
            ],
            "name": "InvalidRouter",
            "type": "error"
        },
        {
            "inputs": [
                {
                    "internalType": "bytes32",
                    "name": "messageId",
                    "type": "bytes32"
                }
            ],
            "name": "MessageIdNotExist",
            "type": "error"
        },
        {
            "inputs": [],
            "name": "NoMessageReceived",
            "type": "error"
        },
        {
            "inputs": [
                {
                    "internalType": "uint256",
                    "name": "",
                    "type": "uint256"
                },
                {
                    "internalType": "uint256",
                    "name": "",
                    "type": "uint256"
                }
            ],
            "name": "NotEnoughBalance",
            "type": "error"
        },
        {
            "inputs": [],
            "name": "NothingToWithdraw",
            "type": "error"
        },
        {
            "anonymous": false,
            "inputs": [
                {
                    "indexed": true,
                    "internalType": "address",
                    "name": "owner",
                    "type": "address"
                },
                {
                    "indexed": true,
                    "internalType": "address",
                    "name": "spender",
                    "type": "address"
                },
                {
                    "indexed": false,
                    "internalType": "uint256",
                    "name": "value",
                    "type": "uint256"
                }
            ],
            "name": "Approval",
            "type": "event"
        },
        {
            "anonymous": false,
            "inputs": [
                {
                    "indexed": true,
                    "internalType": "address",
                    "name": "sender",
                    "type": "address"
                },
                {
                    "indexed": true,
                    "internalType": "address",
                    "name": "owner",
                    "type": "address"
                },
                {
                    "indexed": false,
                    "internalType": "uint256",
                    "name": "assets",
                    "type": "uint256"
                },
                {
                    "indexed": false,
                    "internalType": "uint256",
                    "name": "shares",
                    "type": "uint256"
                }
            ],
            "name": "Deposit",
            "type": "event"
        },
        {
            "anonymous": false,
            "inputs": [
                {
                    "indexed": true,
                    "internalType": "bytes32",
                    "name": "messageId",
                    "type": "bytes32"
                },
                {
                    "indexed": true,
                    "internalType": "uint64",
                    "name": "sourceChainSelector",
                    "type": "uint64"
                },
                {
                    "indexed": false,
                    "internalType": "address",
                    "name": "sender",
                    "type": "address"
                },
                {
                    "indexed": false,
                    "internalType": "address",
                    "name": "depositor",
                    "type": "address"
                },
                {
                    "components": [
                        {
                            "internalType": "address",
                            "name": "token",
                            "type": "address"
                        },
                        {
                            "internalType": "uint256",
                            "name": "amount",
                            "type": "uint256"
                        }
                    ],
                    "indexed": false,
                    "internalType": "struct Client.EVMTokenAmount",
                    "name": "tokenAmount",
                    "type": "tuple"
                }
            ],
            "name": "MessageReceived",
            "type": "event"
        },
        {
            "anonymous": false,
            "inputs": [
                {
                    "indexed": true,
                    "internalType": "bytes32",
                    "name": "messageId",
                    "type": "bytes32"
                },
                {
                    "indexed": true,
                    "internalType": "uint64",
                    "name": "destinationChainSelector",
                    "type": "uint64"
                },
                {
                    "indexed": false,
                    "internalType": "address",
                    "name": "receiver",
                    "type": "address"
                },
                {
                    "indexed": false,
                    "internalType": "address",
                    "name": "borrower",
                    "type": "address"
                },
                {
                    "components": [
                        {
                            "internalType": "address",
                            "name": "token",
                            "type": "address"
                        },
                        {
                            "internalType": "uint256",
                            "name": "amount",
                            "type": "uint256"
                        }
                    ],
                    "indexed": false,
                    "internalType": "struct Client.EVMTokenAmount",
                    "name": "tokenAmount",
                    "type": "tuple"
                },
                {
                    "indexed": false,
                    "internalType": "uint256",
                    "name": "fees",
                    "type": "uint256"
                }
            ],
            "name": "MessageSent",
            "type": "event"
        },
        {
            "anonymous": false,
            "inputs": [
                {
                    "indexed": true,
                    "internalType": "address",
                    "name": "from",
                    "type": "address"
                },
                {
                    "indexed": true,
                    "internalType": "address",
                    "name": "to",
                    "type": "address"
                }
            ],
            "name": "OwnershipTransferRequested",
            "type": "event"
        },
        {
            "anonymous": false,
            "inputs": [
                {
                    "indexed": true,
                    "internalType": "address",
                    "name": "from",
                    "type": "address"
                },
                {
                    "indexed": true,
                    "internalType": "address",
                    "name": "to",
                    "type": "address"
                }
            ],
            "name": "OwnershipTransferred",
            "type": "event"
        },
        {
            "anonymous": false,
            "inputs": [
                {
                    "indexed": true,
                    "internalType": "address",
                    "name": "from",
                    "type": "address"
                },
                {
                    "indexed": true,
                    "internalType": "address",
                    "name": "to",
                    "type": "address"
                },
                {
                    "indexed": false,
                    "internalType": "uint256",
                    "name": "value",
                    "type": "uint256"
                }
            ],
            "name": "Transfer",
            "type": "event"
        },
        {
            "anonymous": false,
            "inputs": [
                {
                    "indexed": true,
                    "internalType": "address",
                    "name": "sender",
                    "type": "address"
                },
                {
                    "indexed": true,
                    "internalType": "address",
                    "name": "receiver",
                    "type": "address"
                },
                {
                    "indexed": true,
                    "internalType": "address",
                    "name": "owner",
                    "type": "address"
                },
                {
                    "indexed": false,
                    "internalType": "uint256",
                    "name": "assets",
                    "type": "uint256"
                },
                {
                    "indexed": false,
                    "internalType": "uint256",
                    "name": "shares",
                    "type": "uint256"
                }
            ],
            "name": "Withdraw",
            "type": "event"
        },
        {
            "inputs": [],
            "name": "acceptOwnership",
            "outputs": [],
            "stateMutability": "nonpayable",
            "type": "function"
        },
        {
            "inputs": [
                {
                    "internalType": "address",
                    "name": "owner",
                    "type": "address"
                },
                {
                    "internalType": "address",
                    "name": "spender",
                    "type": "address"
                }
            ],
            "name": "allowance",
            "outputs": [
                {
                    "internalType": "uint256",
                    "name": "",
                    "type": "uint256"
                }
            ],
            "stateMutability": "view",
            "type": "function"
        },
        {
            "inputs": [
                {
                    "internalType": "address",
                    "name": "spender",
                    "type": "address"
                },
                {
                    "internalType": "uint256",
                    "name": "amount",
                    "type": "uint256"
                }
            ],
            "name": "approve",
            "outputs": [
                {
                    "internalType": "bool",
                    "name": "",
                    "type": "bool"
                }
            ],
            "stateMutability": "nonpayable",
            "type": "function"
        },
        {
            "inputs": [],
            "name": "asset",
            "outputs": [
                {
                    "internalType": "address",
                    "name": "",
                    "type": "address"
                }
            ],
            "stateMutability": "view",
            "type": "function"
        },
        {
            "inputs": [
                {
                    "internalType": "address",
                    "name": "account",
                    "type": "address"
                }
            ],
            "name": "balanceOf",
            "outputs": [
                {
                    "internalType": "uint256",
                    "name": "",
                    "type": "uint256"
                }
            ],
            "stateMutability": "view",
            "type": "function"
        },
        {
            "inputs": [
                {
                    "components": [
                        {
                            "internalType": "bytes32",
                            "name": "messageId",
                            "type": "bytes32"
                        },
                        {
                            "internalType": "uint64",
                            "name": "sourceChainSelector",
                            "type": "uint64"
                        },
                        {
                            "internalType": "bytes",
                            "name": "sender",
                            "type": "bytes"
                        },
                        {
                            "internalType": "bytes",
                            "name": "data",
                            "type": "bytes"
                        },
                        {
                            "components": [
                                {
                                    "internalType": "address",
                                    "name": "token",
                                    "type": "address"
                                },
                                {
                                    "internalType": "uint256",
                                    "name": "amount",
                                    "type": "uint256"
                                }
                            ],
                            "internalType": "struct Client.EVMTokenAmount[]",
                            "name": "destTokenAmounts",
                            "type": "tuple[]"
                        }
                    ],
                    "internalType": "struct Client.Any2EVMMessage",
                    "name": "message",
                    "type": "tuple"
                }
            ],
            "name": "ccipReceive",
            "outputs": [],
            "stateMutability": "nonpayable",
            "type": "function"
        },
        {
            "inputs": [
                {
                    "internalType": "uint256",
                    "name": "shares",
                    "type": "uint256"
                },
                {
                    "internalType": "uint64",
                    "name": "destinationChain",
                    "type": "uint64"
                },
                {
                    "internalType": "address",
                    "name": "receiver",
                    "type": "address"
                }
            ],
            "name": "ccipRedeem",
            "outputs": [],
            "stateMutability": "nonpayable",
            "type": "function"
        },
        {
            "inputs": [
                {
                    "internalType": "uint256",
                    "name": "assets",
                    "type": "uint256"
                },
                {
                    "internalType": "uint64",
                    "name": "destinationChain",
                    "type": "uint64"
                },
                {
                    "internalType": "address",
                    "name": "receiver",
                    "type": "address"
                }
            ],
            "name": "ccipWithdraw",
            "outputs": [],
            "stateMutability": "nonpayable",
            "type": "function"
        },
        {
            "inputs": [
                {
                    "internalType": "uint256",
                    "name": "shares",
                    "type": "uint256"
                }
            ],
            "name": "convertToAssets",
            "outputs": [
                {
                    "internalType": "uint256",
                    "name": "assets",
                    "type": "uint256"
                }
            ],
            "stateMutability": "view",
            "type": "function"
        },
        {
            "inputs": [
                {
                    "internalType": "uint256",
                    "name": "assets",
                    "type": "uint256"
                }
            ],
            "name": "convertToShares",
            "outputs": [
                {
                    "internalType": "uint256",
                    "name": "shares",
                    "type": "uint256"
                }
            ],
            "stateMutability": "view",
            "type": "function"
        },
        {
            "inputs": [],
            "name": "decimals",
            "outputs": [
                {
                    "internalType": "uint8",
                    "name": "",
                    "type": "uint8"
                }
            ],
            "stateMutability": "view",
            "type": "function"
        },
        {
            "inputs": [
                {
                    "internalType": "address",
                    "name": "spender",
                    "type": "address"
                },
                {
                    "internalType": "uint256",
                    "name": "subtractedValue",
                    "type": "uint256"
                }
            ],
            "name": "decreaseAllowance",
            "outputs": [
                {
                    "internalType": "bool",
                    "name": "",
                    "type": "bool"
                }
            ],
            "stateMutability": "nonpayable",
            "type": "function"
        },
        {
            "inputs": [
                {
                    "internalType": "uint256",
                    "name": "assets",
                    "type": "uint256"
                },
                {
                    "internalType": "address",
                    "name": "receiver",
                    "type": "address"
                }
            ],
            "name": "deposit",
            "outputs": [
                {
                    "internalType": "uint256",
                    "name": "",
                    "type": "uint256"
                }
            ],
            "stateMutability": "nonpayable",
            "type": "function"
        },
        {
            "inputs": [],
            "name": "entryFeeBasisPoints",
            "outputs": [
                {
                    "internalType": "uint256",
                    "name": "",
                    "type": "uint256"
                }
            ],
            "stateMutability": "view",
            "type": "function"
        },
        {
            "inputs": [],
            "name": "entryFeeRecipient",
            "outputs": [
                {
                    "internalType": "address",
                    "name": "",
                    "type": "address"
                }
            ],
            "stateMutability": "view",
            "type": "function"
        },
        {
            "inputs": [],
            "name": "exitFeeBasisPoints",
            "outputs": [
                {
                    "internalType": "uint256",
                    "name": "",
                    "type": "uint256"
                }
            ],
            "stateMutability": "view",
            "type": "function"
        },
        {
            "inputs": [],
            "name": "exitFeeRecipient",
            "outputs": [
                {
                    "internalType": "address",
                    "name": "",
                    "type": "address"
                }
            ],
            "stateMutability": "view",
            "type": "function"
        },
        {
            "inputs": [],
            "name": "getLastReceivedMessageDetails",
            "outputs": [
                {
                    "internalType": "bytes32",
                    "name": "messageId",
                    "type": "bytes32"
                },
                {
                    "internalType": "uint64",
                    "name": "",
                    "type": "uint64"
                },
                {
                    "internalType": "address",
                    "name": "",
                    "type": "address"
                },
                {
                    "internalType": "address",
                    "name": "",
                    "type": "address"
                },
                {
                    "internalType": "address",
                    "name": "",
                    "type": "address"
                },
                {
                    "internalType": "uint256",
                    "name": "",
                    "type": "uint256"
                }
            ],
            "stateMutability": "view",
            "type": "function"
        },
        {
            "inputs": [],
            "name": "getNumberOfReceivedMessages",
            "outputs": [
                {
                    "internalType": "uint256",
                    "name": "number",
                    "type": "uint256"
                }
            ],
            "stateMutability": "view",
            "type": "function"
        },
        {
            "inputs": [
                {
                    "internalType": "bytes32",
                    "name": "messageId",
                    "type": "bytes32"
                }
            ],
            "name": "getReceivedMessageDetails",
            "outputs": [
                {
                    "internalType": "uint64",
                    "name": "",
                    "type": "uint64"
                },
                {
                    "internalType": "address",
                    "name": "",
                    "type": "address"
                },
                {
                    "internalType": "address",
                    "name": "",
                    "type": "address"
                },
                {
                    "internalType": "address",
                    "name": "token",
                    "type": "address"
                },
                {
                    "internalType": "uint256",
                    "name": "amount",
                    "type": "uint256"
                }
            ],
            "stateMutability": "view",
            "type": "function"
        },
        {
            "inputs": [],
            "name": "getRouter",
            "outputs": [
                {
                    "internalType": "address",
                    "name": "",
                    "type": "address"
                }
            ],
            "stateMutability": "view",
            "type": "function"
        },
        {
            "inputs": [
                {
                    "internalType": "address",
                    "name": "spender",
                    "type": "address"
                },
                {
                    "internalType": "uint256",
                    "name": "addedValue",
                    "type": "uint256"
                }
            ],
            "name": "increaseAllowance",
            "outputs": [
                {
                    "internalType": "bool",
                    "name": "",
                    "type": "bool"
                }
            ],
            "stateMutability": "nonpayable",
            "type": "function"
        },
        {
            "inputs": [
                {
                    "internalType": "uint64",
                    "name": "destChainSelector",
                    "type": "uint64"
                }
            ],
            "name": "isChainSupported",
            "outputs": [
                {
                    "internalType": "bool",
                    "name": "supported",
                    "type": "bool"
                }
            ],
            "stateMutability": "view",
            "type": "function"
        },
        {
            "inputs": [
                {
                    "internalType": "address",
                    "name": "",
                    "type": "address"
                }
            ],
            "name": "maxDeposit",
            "outputs": [
                {
                    "internalType": "uint256",
                    "name": "",
                    "type": "uint256"
                }
            ],
            "stateMutability": "view",
            "type": "function"
        },
        {
            "inputs": [
                {
                    "internalType": "address",
                    "name": "",
                    "type": "address"
                }
            ],
            "name": "maxMint",
            "outputs": [
                {
                    "internalType": "uint256",
                    "name": "",
                    "type": "uint256"
                }
            ],
            "stateMutability": "view",
            "type": "function"
        },
        {
            "inputs": [
                {
                    "internalType": "address",
                    "name": "owner",
                    "type": "address"
                }
            ],
            "name": "maxRedeem",
            "outputs": [
                {
                    "internalType": "uint256",
                    "name": "",
                    "type": "uint256"
                }
            ],
            "stateMutability": "view",
            "type": "function"
        },
        {
            "inputs": [
                {
                    "internalType": "address",
                    "name": "owner",
                    "type": "address"
                }
            ],
            "name": "maxWithdraw",
            "outputs": [
                {
                    "internalType": "uint256",
                    "name": "",
                    "type": "uint256"
                }
            ],
            "stateMutability": "view",
            "type": "function"
        },
        {
            "inputs": [
                {
                    "internalType": "bytes32",
                    "name": "",
                    "type": "bytes32"
                }
            ],
            "name": "messageDetail",
            "outputs": [
                {
                    "internalType": "uint64",
                    "name": "sourceChainSelector",
                    "type": "uint64"
                },
                {
                    "internalType": "address",
                    "name": "sender",
                    "type": "address"
                },
                {
                    "internalType": "address",
                    "name": "depositor",
                    "type": "address"
                },
                {
                    "internalType": "address",
                    "name": "token",
                    "type": "address"
                },
                {
                    "internalType": "uint256",
                    "name": "amount",
                    "type": "uint256"
                }
            ],
            "stateMutability": "view",
            "type": "function"
        },
        {
            "inputs": [
                {
                    "internalType": "uint256",
                    "name": "shares",
                    "type": "uint256"
                },
                {
                    "internalType": "address",
                    "name": "receiver",
                    "type": "address"
                }
            ],
            "name": "mint",
            "outputs": [
                {
                    "internalType": "uint256",
                    "name": "",
                    "type": "uint256"
                }
            ],
            "stateMutability": "nonpayable",
            "type": "function"
        },
        {
            "inputs": [],
            "name": "name",
            "outputs": [
                {
                    "internalType": "string",
                    "name": "",
                    "type": "string"
                }
            ],
            "stateMutability": "view",
            "type": "function"
        },
        {
            "inputs": [],
            "name": "owner",
            "outputs": [
                {
                    "internalType": "address",
                    "name": "",
                    "type": "address"
                }
            ],
            "stateMutability": "view",
            "type": "function"
        },
        {
            "inputs": [
                {
                    "internalType": "uint256",
                    "name": "assets",
                    "type": "uint256"
                }
            ],
            "name": "previewDeposit",
            "outputs": [
                {
                    "internalType": "uint256",
                    "name": "",
                    "type": "uint256"
                }
            ],
            "stateMutability": "view",
            "type": "function"
        },
        {
            "inputs": [
                {
                    "internalType": "uint256",
                    "name": "shares",
                    "type": "uint256"
                }
            ],
            "name": "previewMint",
            "outputs": [
                {
                    "internalType": "uint256",
                    "name": "",
                    "type": "uint256"
                }
            ],
            "stateMutability": "view",
            "type": "function"
        },
        {
            "inputs": [
                {
                    "internalType": "uint256",
                    "name": "shares",
                    "type": "uint256"
                }
            ],
            "name": "previewRedeem",
            "outputs": [
                {
                    "internalType": "uint256",
                    "name": "",
                    "type": "uint256"
                }
            ],
            "stateMutability": "view",
            "type": "function"
        },
        {
            "inputs": [
                {
                    "internalType": "uint256",
                    "name": "assets",
                    "type": "uint256"
                }
            ],
            "name": "previewWithdraw",
            "outputs": [
                {
                    "internalType": "uint256",
                    "name": "",
                    "type": "uint256"
                }
            ],
            "stateMutability": "view",
            "type": "function"
        },
        {
            "inputs": [
                {
                    "internalType": "uint256",
                    "name": "",
                    "type": "uint256"
                }
            ],
            "name": "receivedMessages",
            "outputs": [
                {
                    "internalType": "bytes32",
                    "name": "",
                    "type": "bytes32"
                }
            ],
            "stateMutability": "view",
            "type": "function"
        },
        {
            "inputs": [
                {
                    "internalType": "uint256",
                    "name": "shares",
                    "type": "uint256"
                },
                {
                    "internalType": "address",
                    "name": "receiver",
                    "type": "address"
                },
                {
                    "internalType": "address",
                    "name": "owner",
                    "type": "address"
                }
            ],
            "name": "redeem",
            "outputs": [
                {
                    "internalType": "uint256",
                    "name": "",
                    "type": "uint256"
                }
            ],
            "stateMutability": "nonpayable",
            "type": "function"
        },
        {
            "inputs": [
                {
                    "internalType": "uint256",
                    "name": "feeBasisPoints",
                    "type": "uint256"
                }
            ],
            "name": "setEntryFeeBasisPoints",
            "outputs": [],
            "stateMutability": "nonpayable",
            "type": "function"
        },
        {
            "inputs": [
                {
                    "internalType": "address",
                    "name": "recipient",
                    "type": "address"
                }
            ],
            "name": "setEntryFeeRecipient",
            "outputs": [],
            "stateMutability": "nonpayable",
            "type": "function"
        },
        {
            "inputs": [
                {
                    "internalType": "uint256",
                    "name": "feeBasisPoints",
                    "type": "uint256"
                }
            ],
            "name": "setExitFeeBasisPoints",
            "outputs": [],
            "stateMutability": "nonpayable",
            "type": "function"
        },
        {
            "inputs": [
                {
                    "internalType": "address",
                    "name": "recipient",
                    "type": "address"
                }
            ],
            "name": "setExitFeeRecipient",
            "outputs": [],
            "stateMutability": "nonpayable",
            "type": "function"
        },
        {
            "inputs": [
                {
                    "internalType": "bytes4",
                    "name": "interfaceId",
                    "type": "bytes4"
                }
            ],
            "name": "supportsInterface",
            "outputs": [
                {
                    "internalType": "bool",
                    "name": "",
                    "type": "bool"
                }
            ],
            "stateMutability": "pure",
            "type": "function"
        },
        {
            "inputs": [],
            "name": "symbol",
            "outputs": [
                {
                    "internalType": "string",
                    "name": "",
                    "type": "string"
                }
            ],
            "stateMutability": "view",
            "type": "function"
        },
        {
            "inputs": [],
            "name": "totalAssets",
            "outputs": [
                {
                    "internalType": "uint256",
                    "name": "",
                    "type": "uint256"
                }
            ],
            "stateMutability": "view",
            "type": "function"
        },
        {
            "inputs": [],
            "name": "totalSupply",
            "outputs": [
                {
                    "internalType": "uint256",
                    "name": "",
                    "type": "uint256"
                }
            ],
            "stateMutability": "view",
            "type": "function"
        },
        {
            "inputs": [
                {
                    "internalType": "address",
                    "name": "to",
                    "type": "address"
                },
                {
                    "internalType": "uint256",
                    "name": "amount",
                    "type": "uint256"
                }
            ],
            "name": "transfer",
            "outputs": [
                {
                    "internalType": "bool",
                    "name": "",
                    "type": "bool"
                }
            ],
            "stateMutability": "nonpayable",
            "type": "function"
        },
        {
            "inputs": [
                {
                    "internalType": "address",
                    "name": "from",
                    "type": "address"
                },
                {
                    "internalType": "address",
                    "name": "to",
                    "type": "address"
                },
                {
                    "internalType": "uint256",
                    "name": "amount",
                    "type": "uint256"
                }
            ],
            "name": "transferFrom",
            "outputs": [
                {
                    "internalType": "bool",
                    "name": "",
                    "type": "bool"
                }
            ],
            "stateMutability": "nonpayable",
            "type": "function"
        },
        {
            "inputs": [
                {
                    "internalType": "address",
                    "name": "to",
                    "type": "address"
                }
            ],
            "name": "transferOwnership",
            "outputs": [],
            "stateMutability": "nonpayable",
            "type": "function"
        },
        {
            "inputs": [
                {
                    "internalType": "uint256",
                    "name": "assets",
                    "type": "uint256"
                },
                {
                    "internalType": "address",
                    "name": "receiver",
                    "type": "address"
                },
                {
                    "internalType": "address",
                    "name": "owner",
                    "type": "address"
                }
            ],
            "name": "withdraw",
            "outputs": [
                {
                    "internalType": "uint256",
                    "name": "",
                    "type": "uint256"
                }
            ],
            "stateMutability": "nonpayable",
            "type": "function"
        },
        {
            "inputs": [],
            "name": "withdrawEth",
            "outputs": [],
            "stateMutability": "nonpayable",
            "type": "function"
        },
        {
            "inputs": [
                {
                    "internalType": "address",
                    "name": "token",
                    "type": "address"
                }
            ],
            "name": "withdrawToken",
            "outputs": [],
            "stateMutability": "nonpayable",
            "type": "function"
        },
        {
            "stateMutability": "payable",
            "type": "receive"
        }
    ],
    "bytecode": "0x60e06040523480156200001157600080fd5b5060405162003a8338038062003a838339810160408190526200003491620003a2565b8083833380600085604051806040016040528060128152602001715661756c74205374616b65204163726f737360701b815250604051806040016040528060048152602001637653544160e01b8152508760006001600160a01b0316816001600160a01b031603620000c1576040516335fdcccd60e21b8152600060048201526024015b60405180910390fd5b6001600160a01b03166080526003620000db83826200049b565b506004620000ea82826200049b565b5050506000806200010183620001f660201b60201c565b91509150816200011357601262000115565b805b60ff1660c05250506001600160a01b0390811660a05282166200017b5760405162461bcd60e51b815260206004820152601860248201527f43616e6e6f7420736574206f776e657220746f207a65726f00000000000000006044820152606401620000b8565b600580546001600160a01b0319166001600160a01b0384811691909117909155811615620001ae57620001ae81620002dd565b5050600980546001600160a01b039093166001600160a01b0319938416179055506000600a819055600b55600c805482169055600d8054909116905550620005b29350505050565b60408051600481526024810182526020810180516001600160e01b031663313ce56760e01b17905290516000918291829182916001600160a01b038716916200023f9162000567565b6000604051808303816000865af19150503d80600081146200027e576040519150601f19603f3d011682016040523d82523d6000602084013e62000283565b606091505b50915091508180156200029857506020815110155b15620002d057600081806020019051810190620002b6919062000598565b905060ff8111620002ce576001969095509350505050565b505b5060009485945092505050565b336001600160a01b03821603620003375760405162461bcd60e51b815260206004820152601760248201527f43616e6e6f74207472616e7366657220746f2073656c660000000000000000006044820152606401620000b8565b600680546001600160a01b0319166001600160a01b03838116918217909255600554604051919216907fed8889f560326eb138920d842192f0eb3dd22b4f139c87a2c57538e05bae127890600090a350565b6001600160a01b03811681146200039f57600080fd5b50565b600080600060608486031215620003b857600080fd5b8351620003c58162000389565b6020850151909350620003d88162000389565b6040850151909250620003eb8162000389565b809150509250925092565b634e487b7160e01b600052604160045260246000fd5b600181811c908216806200042157607f821691505b6020821081036200044257634e487b7160e01b600052602260045260246000fd5b50919050565b601f8211156200049657600081815260208120601f850160051c81016020861015620004715750805b601f850160051c820191505b8181101562000492578281556001016200047d565b5050505b505050565b81516001600160401b03811115620004b757620004b7620003f6565b620004cf81620004c884546200040c565b8462000448565b602080601f831160018114620005075760008415620004ee5750858301515b600019600386901b1c1916600185901b17855562000492565b600085815260208120601f198616915b82811015620005385788860151825594840194600190910190840162000517565b5085821015620005575787850151600019600388901b60f8161c191681555b5050505050600190811b01905550565b6000825160005b818110156200058a57602081860181015185830152016200056e565b506000920191825250919050565b600060208284031215620005ab57600080fd5b5051919050565b60805160a05160c0516134696200061a600039600061054a01526000818161058301528181610adf01528181610e510152818161102c0152818161204501528181612180015281816124b301526125be0152600081816108c8015261112501526134696000f3fe6080604052600436106103385760003560e01c806385572ffb116101b0578063b460af94116100ec578063d030366c11610095578063e510ade81161006f578063e510ade814610a49578063ef8b30f714610a67578063f2fde38b14610a87578063f9f97c9814610aa757600080fd5b8063d030366c146109c3578063d905777e146109e3578063dd62ed3e14610a0357600080fd5b8063c63d75b6116100c6578063c63d75b614610961578063c6e6f59214610983578063ce96cb77146109a357600080fd5b8063b460af941461090c578063ba0876521461092c578063ba0af7a91461094c57600080fd5b80639c3ddb2e11610159578063a48a905811610133578063a48a905814610879578063a9059cbb14610899578063b0f479a1146108b9578063b3d7f6b9146108ec57600080fd5b80639c3ddb2e146107dc578063a0ef91df14610844578063a457c2d71461085957600080fd5b80638da5cb5b1161018a5780638da5cb5b1461078957806394bf804d146107a757806395d89b41146107c757600080fd5b806385572ffb146107345780638691557314610754578063894760691461076957600080fd5b8063263596a51161027f5780634cdad506116102285780636e553f65116102025780636e553f65146106a95780636f5a141c146106c957806370a08231146106e957806379ba50971461071f57600080fd5b80634cdad5061461060757806351bd6698146106275780635b63b05c1461068957600080fd5b8063395093511161025957806339509351146105a7578063397ac36e146105c7578063402d267d146105e757600080fd5b8063263596a5146104dc578063313ce5671461053657806338d52e0f1461057457600080fd5b80630b652d6d116102e15780631fc6456b116102bb5780631fc6456b1461047a57806321c111d61461049c57806323b872dd146104bc57600080fd5b80630b652d6d1461041e57806318160ddd146104335780631e0fc6771461044857600080fd5b806307a2d13a1161031257806307a2d13a146103be578063095ea7b3146103de5780630a28a477146103fe57600080fd5b806301e1d1141461034457806301ffc9a71461036c57806306fdde031461039c57600080fd5b3661033f57005b600080fd5b34801561035057600080fd5b50610359610ac7565b6040519081526020015b60405180910390f35b34801561037857600080fd5b5061038c610387366004612c93565b610b57565b6040519015158152602001610363565b3480156103a857600080fd5b506103b1610bc0565b6040516103639190612d0d565b3480156103ca57600080fd5b506103596103d9366004612d20565b610c52565b3480156103ea57600080fd5b5061038c6103f9366004612d4e565b610c5f565b34801561040a57600080fd5b50610359610419366004612d20565b610c77565b34801561042a57600080fd5b50600754610359565b34801561043f57600080fd5b50600254610359565b34801561045457600080fd5b50600c546001600160a01b03165b6040516001600160a01b039091168152602001610363565b34801561048657600080fd5b5061049a610495366004612d7a565b610ca1565b005b3480156104a857600080fd5b5061049a6104b7366004612d20565b610cd8565b3480156104c857600080fd5b5061038c6104d7366004612d97565b610ce5565b3480156104e857600080fd5b506104f1610d09565b6040805196875267ffffffffffffffff90951660208701526001600160a01b0393841694860194909452908216606085015216608083015260a082015260c001610363565b34801561054257600080fd5b5060405160ff7f0000000000000000000000000000000000000000000000000000000000000000168152602001610363565b34801561058057600080fd5b507f0000000000000000000000000000000000000000000000000000000000000000610462565b3480156105b357600080fd5b5061038c6105c2366004612d4e565b610dff565b3480156105d357600080fd5b5061049a6105e2366004612df5565b610e3e565b3480156105f357600080fd5b50610359610602366004612d7a565b610e7c565b34801561061357600080fd5b50610359610622366004612d20565b610e9a565b34801561063357600080fd5b50610647610642366004612d20565b610ebe565b6040805167ffffffffffffffff90961686526001600160a01b03948516602087015292841692850192909252919091166060830152608082015260a001610363565b34801561069557600080fd5b5061049a6106a4366004612d20565b610f96565b3480156106b557600080fd5b506103596106c4366004612e35565b610fa3565b3480156106d557600080fd5b5061049a6106e4366004612df5565b611016565b3480156106f557600080fd5b50610359610704366004612d7a565b6001600160a01b031660009081526020819052604090205490565b34801561072b57600080fd5b5061049a611058565b34801561074057600080fd5b5061049a61074f366004612e65565b61111a565b34801561076057600080fd5b50600b54610359565b34801561077557600080fd5b5061049a610784366004612d7a565b611192565b34801561079557600080fd5b506005546001600160a01b0316610462565b3480156107b357600080fd5b506103596107c2366004612e35565b61127e565b3480156107d357600080fd5b506103b1611298565b3480156107e857600080fd5b506106476107f7366004612d20565b600860205260009081526040902080546001820154600283015460039093015467ffffffffffffffff8316936001600160a01b036801000000000000000090940484169392831692169085565b34801561085057600080fd5b5061049a6112a7565b34801561086557600080fd5b5061038c610874366004612d4e565b611340565b34801561088557600080fd5b5061038c610894366004612ea0565b6113ea565b3480156108a557600080fd5b5061038c6108b4366004612d4e565b6114db565b3480156108c557600080fd5b507f0000000000000000000000000000000000000000000000000000000000000000610462565b3480156108f857600080fd5b50610359610907366004612d20565b6114e9565b34801561091857600080fd5b50610359610927366004612ebb565b61150d565b34801561093857600080fd5b50610359610947366004612ebb565b611589565b34801561095857600080fd5b50600a54610359565b34801561096d57600080fd5b5061035961097c366004612d7a565b5060001990565b34801561098f57600080fd5b5061035961099e366004612d20565b6115fd565b3480156109af57600080fd5b506103596109be366004612d7a565b61160a565b3480156109cf57600080fd5b506103596109de366004612d20565b61162e565b3480156109ef57600080fd5b506103596109fe366004612d7a565b61164f565b348015610a0f57600080fd5b50610359610a1e366004612ee2565b6001600160a01b03918216600090815260016020908152604080832093909416825291909152205490565b348015610a5557600080fd5b50600d546001600160a01b0316610462565b348015610a7357600080fd5b50610359610a82366004612d20565b61166d565b348015610a9357600080fd5b5061049a610aa2366004612d7a565b61168b565b348015610ab357600080fd5b5061049a610ac2366004612d7a565b61169c565b6040516370a0823160e01b81523060048201526000907f00000000000000000000000000000000000000000000000000000000000000006001600160a01b0316906370a0823190602401602060405180830381865afa158015610b2e573d6000803e3d6000fd5b505050506040513d601f19601f82011682018060405250810190610b529190612f10565b905090565b60006001600160e01b031982167f85572ffb000000000000000000000000000000000000000000000000000000001480610bba57506001600160e01b031982167f01ffc9a700000000000000000000000000000000000000000000000000000000145b92915050565b606060038054610bcf90612f29565b80601f0160208091040260200160405190810160405280929190818152602001828054610bfb90612f29565b8015610c485780601f10610c1d57610100808354040283529160200191610c48565b820191906000526020600020905b815481529060010190602001808311610c2b57829003601f168201915b5050505050905090565b6000610bba8260006116d3565b600033610c6d818585611706565b5060019392505050565b600080610c8683600b5461185e565b9050610c9a610c958285612f79565b61186f565b9392505050565b610ca961187c565b600c805473ffffffffffffffffffffffffffffffffffffffff19166001600160a01b0392909216919091179055565b610ce061187c565b600a55565b600033610cf38582856118d8565b610cfe858585611964565b506001949350505050565b600080600080600080600780549050600003610d51576040517f6ad69dd500000000000000000000000000000000000000000000000000000000815260040160405180910390fd5b60078054610d6190600190612f8c565b81548110610d7157610d71612f9f565b60009182526020808320919091015480835260088252604092839020835160a081018552815467ffffffffffffffff8116808352680100000000000000009091046001600160a01b0390811695830186905260018401548116968301879052600284015416606083018190526003909301546080909201829052929b929a5092985092965091945092509050565b3360008181526001602090815260408083206001600160a01b0387168452909152812054909190610c6d9082908690610e39908790612f79565b611706565b610e4983823361150d565b50610e7682827f000000000000000000000000000000000000000000000000000000000000000086611b51565b50505050565b6000610e86611fc5565b610e91576000610bba565b60001992915050565b600080610ea683610c52565b9050610eb481600b54611fdf565b610c9a9082612f8c565b6000818152600860209081526040808320815160a081018352815467ffffffffffffffff811682526001600160a01b03680100000000000000009091048116948201859052600183015481169382019390935260028201549092166060830152600301546080820152829182918291829190610f6e576040517f4d47bb33000000000000000000000000000000000000000000000000000000008152600481018890526024015b60405180910390fd5b8051602082015160408301516060840151608090940151929a91995097509195509350915050565b610f9e61187c565b600b55565b6000610fae82610e7c565b831115610ffd5760405162461bcd60e51b815260206004820152601e60248201527f455243343632363a206465706f736974206d6f7265207468616e206d617800006044820152606401610f65565b60006110088461166d565b9050610c9a33848684611ffb565b6000611023848333611589565b905061105183837f000000000000000000000000000000000000000000000000000000000000000084611b51565b5050505050565b6006546001600160a01b031633146110b25760405162461bcd60e51b815260206004820152601660248201527f4d7573742062652070726f706f736564206f776e6572000000000000000000006044820152606401610f65565b6005805473ffffffffffffffffffffffffffffffffffffffff19808216339081179093556006805490911690556040516001600160a01b03909116919082907f8be0079c531659141344cd1fd0a4f28419497f9722a3daafe3b4186f6b6457e090600090a350565b336001600160a01b037f0000000000000000000000000000000000000000000000000000000000000000161461117e576040517fd7f73334000000000000000000000000000000000000000000000000000000008152336004820152602401610f65565b61118f61118a82613165565b6120d3565b50565b61119a61187c565b6040516370a0823160e01b81523060048201526000906001600160a01b038316906370a0823190602401602060405180830381865afa1580156111e1573d6000803e3d6000fd5b505050506040513d601f19601f820116820180604052508101906112059190612f10565b60405163a9059cbb60e01b8152336004820152602481018290529091506001600160a01b0383169063a9059cbb906044016020604051808303816000875af1158015611255573d6000803e3d6000fd5b505050506040513d601f19601f820116820180604052508101906112799190613212565b505050565b60008061128a846114e9565b9050610c9a33848387611ffb565b606060048054610bcf90612f29565b6112af61187c565b6040514790600090339083908381818185875af1925050503d80600081146112f3576040519150601f19603f3d011682016040523d82523d6000602084013e6112f8565b606091505b505090508061133c576040517f0cd9003700000000000000000000000000000000000000000000000000000000815233600482015260248101839052604401610f65565b5050565b3360008181526001602090815260408083206001600160a01b0387168452909152812054909190838110156113dd5760405162461bcd60e51b815260206004820152602560248201527f45524332303a2064656372656173656420616c6c6f77616e63652062656c6f7760448201527f207a65726f0000000000000000000000000000000000000000000000000000006064820152608401610f65565b610cfe8286868403611706565b6000306001600160a01b031663b0f479a16040518163ffffffff1660e01b8152600401602060405180830381865afa15801561142a573d6000803e3d6000fd5b505050506040513d601f19601f8201168201806040525081019061144e9190613234565b6040517fa48a905800000000000000000000000000000000000000000000000000000000815267ffffffffffffffff841660048201526001600160a01b03919091169063a48a905890602401602060405180830381865afa1580156114b7573d6000803e3d6000fd5b505050506040513d601f19601f82011682018060405250810190610bba9190613212565b600033610c6d818585611964565b6000806114f583612129565b905061150381600a5461185e565b610c9a9082612f79565b60006115188261160a565b8411156115675760405162461bcd60e51b815260206004820152601f60248201527f455243343632363a207769746864726177206d6f7265207468616e206d6178006044820152606401610f65565b600061157285610c77565b90506115813385858885612136565b949350505050565b60006115948261164f565b8411156115e35760405162461bcd60e51b815260206004820152601d60248201527f455243343632363a2072656465656d206d6f7265207468616e206d61780000006044820152606401610f65565b60006115ee85610e9a565b90506115813385858489612136565b6000610bba82600061220d565b6001600160a01b038116600090815260208190526040812054610bba9060006116d3565b6007818154811061163e57600080fd5b600091825260209091200154905081565b6001600160a01b038116600090815260208190526040812054610bba565b60008061167c83600a54611fdf565b9050610c9a61099e8285612f8c565b61169361187c565b61118f8161224a565b6116a461187c565b600d805473ffffffffffffffffffffffffffffffffffffffff19166001600160a01b0392909216919091179055565b6000806116df60025490565b90508015611700576116fb6116f2610ac7565b85908386612301565b611581565b83611581565b6001600160a01b0383166117815760405162461bcd60e51b8152602060048201526024808201527f45524332303a20617070726f76652066726f6d20746865207a65726f2061646460448201527f72657373000000000000000000000000000000000000000000000000000000006064820152608401610f65565b6001600160a01b0382166117fd5760405162461bcd60e51b815260206004820152602260248201527f45524332303a20617070726f766520746f20746865207a65726f20616464726560448201527f73730000000000000000000000000000000000000000000000000000000000006064820152608401610f65565b6001600160a01b0383811660008181526001602090815260408083209487168084529482529182902085905590518481527f8c5be1e5ebec7d5bd14f71427d1e84f3dd0314c0f7b2291e5b200ac8c7c3b925910160405180910390a3505050565b6000610c9a83836127106001612301565b6000610bba82600161220d565b6005546001600160a01b031633146118d65760405162461bcd60e51b815260206004820152601660248201527f4f6e6c792063616c6c61626c65206279206f776e6572000000000000000000006044820152606401610f65565b565b6001600160a01b038381166000908152600160209081526040808320938616835292905220546000198114610e7657818110156119575760405162461bcd60e51b815260206004820152601d60248201527f45524332303a20696e73756666696369656e7420616c6c6f77616e63650000006044820152606401610f65565b610e768484848403611706565b6001600160a01b0383166119e05760405162461bcd60e51b815260206004820152602560248201527f45524332303a207472616e736665722066726f6d20746865207a65726f20616460448201527f64726573730000000000000000000000000000000000000000000000000000006064820152608401610f65565b6001600160a01b038216611a5c5760405162461bcd60e51b815260206004820152602360248201527f45524332303a207472616e7366657220746f20746865207a65726f206164647260448201527f65737300000000000000000000000000000000000000000000000000000000006064820152608401610f65565b6001600160a01b03831660009081526020819052604090205481811015611aeb5760405162461bcd60e51b815260206004820152602660248201527f45524332303a207472616e7366657220616d6f756e742065786365656473206260448201527f616c616e636500000000000000000000000000000000000000000000000000006064820152608401610f65565b6001600160a01b03848116600081815260208181526040808320878703905593871680835291849020805487019055925185815290927fddf252ad1be2c89b69c2b068fc378daa952ba7f163c4a11628f55a4df523b3ef910160405180910390a3610e76565b60408051600180825281830190925260009133918391816020015b6040805180820190915260008082526020820152815260200190600190039081611b6c57905050905060006040518060400160405280876001600160a01b031681526020018681525090508082600081518110611bcb57611bcb612f9f565b60209081029190910101526040805160a081019091526001600160a01b03881660c08201526000908060e08101604051602081830303815290604052815260200185604051602001611c2c91906001600160a01b0391909116815260200190565b60408051601f1981840301815291815290825260208083018790526009546001600160a01b0316838301528151808201835262030d4090819052825160248082019290925283518082039092018252604401909252810180517bffffffffffffffffffffffffffffffffffffffffffffffffffffffff167f97a657c90000000000000000000000000000000000000000000000000000000017905260609091019081525090506000306001600160a01b031663b0f479a16040518163ffffffff1660e01b8152600401602060405180830381865afa158015611d12573d6000803e3d6000fd5b505050506040513d601f19601f82011682018060405250810190611d369190613234565b90506000816001600160a01b03166320487ded8c856040518363ffffffff1660e01b8152600401611d68929190613251565b602060405180830381865afa158015611d85573d6000803e3d6000fd5b505050506040513d601f19601f82011682018060405250810190611da99190612f10565b60095460405163095ea7b360e01b81526001600160a01b0385811660048301526024820184905292935091169063095ea7b3906044016020604051808303816000875af1158015611dfe573d6000803e3d6000fd5b505050506040513d601f19601f82011682018060405250810190611e229190613212565b5060405163095ea7b360e01b81526001600160a01b038381166004830152602482018a90528a169063095ea7b3906044016020604051808303816000875af1158015611e72573d6000803e3d6000fd5b505050506040513d601f19601f82011682018060405250810190611e969190613212565b611ee25760405162461bcd60e51b815260206004820152601860248201527f4661696c656420746f20617070726f766520726f7574657200000000000000006044820152606401610f65565b6040517f96f4e9f90000000000000000000000000000000000000000000000000000000081526001600160a01b038316906396f4e9f990611f29908e908790600401613251565b6020604051808303816000875af1158015611f48573d6000803e3d6000fd5b505050506040513d601f19601f82011682018060405250810190611f6c9190612f10565b96508a67ffffffffffffffff16877f2203b02ed2b5012803d6fecd082627e1cf6906cbfc26b50528c0c8bdc3a326468c898886604051611faf9493929190613333565b60405180910390a3505050505050949350505050565b600080611fd0610ac7565b1180610b525750506002541590565b6000610c9a82611ff161271082612f79565b8591906001612301565b600061200983600a54611fdf565b600c549091506001600160a01b0316612022858461235e565b60008211801561203b57506001600160a01b0381163014155b1561206c5761206c7f00000000000000000000000000000000000000000000000000000000000000005b828461241d565b61207584612495565b846001600160a01b0316866001600160a01b03167fdcbc1c05240f31ff3ad067ef1ee35ce4997762752e3a095284754544f4c709d786866040516120c3929190918252602082015260400190565b60405180910390a3505050505050565b600081606001518060200190518101906120ed9190613234565b90506000826080015160008151811061210857612108612f9f565b602002602001015160200151905061211f836125f0565b610e768183610fa3565b6000610bba8260016116d3565b600061214483600b5461185e565b600d549091506001600160a01b031661215d858461283d565b60008211801561217657506001600160a01b0381163014155b156121a4576121a47f0000000000000000000000000000000000000000000000000000000000000000612065565b846001600160a01b0316866001600160a01b0316886001600160a01b03167ffbde797d201c681b91056529119e0b02407c7bb96a4a2c75c01fc9667232c8db87876040516121fc929190918252602082015260400190565b60405180910390a450505050505050565b60008061221960025490565b9050831580612226575080155b611700576116fb8185612237610ac7565b6122419190612f8c565b86919086612301565b336001600160a01b038216036122a25760405162461bcd60e51b815260206004820152601760248201527f43616e6e6f74207472616e7366657220746f2073656c660000000000000000006044820152606401610f65565b6006805473ffffffffffffffffffffffffffffffffffffffff19166001600160a01b03838116918217909255600554604051919216907fed8889f560326eb138920d842192f0eb3dd22b4f139c87a2c57538e05bae127890600090a350565b60008061230f86868661298b565b905060018360028111156123255761232561337a565b14801561234257506000848061233d5761233d613390565b868809115b1561235557612352600182612f79565b90505b95945050505050565b6001600160a01b0382166123b45760405162461bcd60e51b815260206004820152601f60248201527f45524332303a206d696e7420746f20746865207a65726f2061646472657373006044820152606401610f65565b80600260008282546123c69190612f79565b90915550506001600160a01b038216600081815260208181526040808320805486019055518481527fddf252ad1be2c89b69c2b068fc378daa952ba7f163c4a11628f55a4df523b3ef910160405180910390a35050565b6040516001600160a01b03831660248201526044810182905261127990849063a9059cbb60e01b906064015b60408051601f198184030181529190526020810180517bffffffffffffffffffffffffffffffffffffffffffffffffffffffff166001600160e01b031990931692909217909152612a3a565b600060646124a483600a6133a6565b6124ae91906133bd565b9050807f00000000000000000000000000000000000000000000000000000000000000006001600160a01b031663dd62ed3e6124f26005546001600160a01b031690565b6040516001600160e01b031960e084901b1681526001600160a01b039091166004820152306024820152604401602060405180830381865afa15801561253c573d6000803e3d6000fd5b505050506040513d601f19601f820116820180604052508101906125609190612f10565b10156125b95760405162461bcd60e51b815260206004820152602260248201527f455243343632365661756c743a204e6f7420656e6f75676820616c6c6f77616e604482015261636560f01b6064820152608401610f65565b61133c7f00000000000000000000000000000000000000000000000000000000000000006005546001600160a01b03163084612b1f565b80516020808301516040840151805191926000926126149290810182019101613234565b9050600084606001518060200190518101906126309190613234565b905060008560800151905060008160008151811061265057612650612f9f565b602002602001015160000151905060008260008151811061267357612673612f9f565b6020026020010151602001519050600787908060018154018082558091505060019003906000526020600020016000909190919091505560006040518060a001604052808867ffffffffffffffff168152602001876001600160a01b03168152602001866001600160a01b03168152602001846001600160a01b0316815260200183815250905080600860008a815260200190815260200160002060008201518160000160006101000a81548167ffffffffffffffff021916908367ffffffffffffffff16021790555060208201518160000160086101000a8154816001600160a01b0302191690836001600160a01b0316021790555060408201518160010160006101000a8154816001600160a01b0302191690836001600160a01b0316021790555060608201518160020160006101000a8154816001600160a01b0302191690836001600160a01b03160217905550608082015181600301559050508667ffffffffffffffff16887fb8387be1e3a7f6676cc5eb93b06b8912fd99545cd542e6296b2db1d0fd82cacd88888860008151811061281357612813612f9f565b602002602001015160405161282a939291906133df565b60405180910390a3505050505050505050565b6001600160a01b0382166128b95760405162461bcd60e51b815260206004820152602160248201527f45524332303a206275726e2066726f6d20746865207a65726f2061646472657360448201527f73000000000000000000000000000000000000000000000000000000000000006064820152608401610f65565b6001600160a01b0382166000908152602081905260409020548181101561292d5760405162461bcd60e51b815260206004820152602260248201527f45524332303a206275726e20616d6f756e7420657863656564732062616c616e604482015261636560f01b6064820152608401610f65565b6001600160a01b0383166000818152602081815260408083208686039055600280548790039055518581529192917fddf252ad1be2c89b69c2b068fc378daa952ba7f163c4a11628f55a4df523b3ef910160405180910390a3505050565b60008080600019858709858702925082811083820303915050806000036129c5578382816129bb576129bb613390565b0492505050610c9a565b8084116129d157600080fd5b60008486880960026001871981018816978890046003810283188082028403028082028403028082028403028082028403028082028403029081029092039091026000889003889004909101858311909403939093029303949094049190911702949350505050565b6000612a8f826040518060400160405280602081526020017f5361666545524332303a206c6f772d6c6576656c2063616c6c206661696c6564815250856001600160a01b0316612b709092919063ffffffff16565b8051909150156112795780806020019051810190612aad9190613212565b6112795760405162461bcd60e51b815260206004820152602a60248201527f5361666545524332303a204552433230206f7065726174696f6e20646964206e60448201527f6f742073756363656564000000000000000000000000000000000000000000006064820152608401610f65565b6040516001600160a01b0380851660248301528316604482015260648101829052610e769085907f23b872dd0000000000000000000000000000000000000000000000000000000090608401612449565b6060611581848460008585600080866001600160a01b03168587604051612b979190613417565b60006040518083038185875af1925050503d8060008114612bd4576040519150601f19603f3d011682016040523d82523d6000602084013e612bd9565b606091505b5091509150612bea87838387612bf5565b979650505050505050565b60608315612c64578251600003612c5d576001600160a01b0385163b612c5d5760405162461bcd60e51b815260206004820152601d60248201527f416464726573733a2063616c6c20746f206e6f6e2d636f6e74726163740000006044820152606401610f65565b5081611581565b6115818383815115612c795781518083602001fd5b8060405162461bcd60e51b8152600401610f659190612d0d565b600060208284031215612ca557600080fd5b81356001600160e01b031981168114610c9a57600080fd5b60005b83811015612cd8578181015183820152602001612cc0565b50506000910152565b60008151808452612cf9816020860160208601612cbd565b601f01601f19169290920160200192915050565b602081526000610c9a6020830184612ce1565b600060208284031215612d3257600080fd5b5035919050565b6001600160a01b038116811461118f57600080fd5b60008060408385031215612d6157600080fd5b8235612d6c81612d39565b946020939093013593505050565b600060208284031215612d8c57600080fd5b8135610c9a81612d39565b600080600060608486031215612dac57600080fd5b8335612db781612d39565b92506020840135612dc781612d39565b929592945050506040919091013590565b803567ffffffffffffffff81168114612df057600080fd5b919050565b600080600060608486031215612e0a57600080fd5b83359250612e1a60208501612dd8565b91506040840135612e2a81612d39565b809150509250925092565b60008060408385031215612e4857600080fd5b823591506020830135612e5a81612d39565b809150509250929050565b600060208284031215612e7757600080fd5b813567ffffffffffffffff811115612e8e57600080fd5b820160a08185031215610c9a57600080fd5b600060208284031215612eb257600080fd5b610c9a82612dd8565b600080600060608486031215612ed057600080fd5b833592506020840135612e1a81612d39565b60008060408385031215612ef557600080fd5b8235612f0081612d39565b91506020830135612e5a81612d39565b600060208284031215612f2257600080fd5b5051919050565b600181811c90821680612f3d57607f821691505b602082108103612f5d57634e487b7160e01b600052602260045260246000fd5b50919050565b634e487b7160e01b600052601160045260246000fd5b80820180821115610bba57610bba612f63565b81810381811115610bba57610bba612f63565b634e487b7160e01b600052603260045260246000fd5b634e487b7160e01b600052604160045260246000fd5b6040805190810167ffffffffffffffff81118282101715612fee57612fee612fb5565b60405290565b60405160a0810167ffffffffffffffff81118282101715612fee57612fee612fb5565b604051601f8201601f1916810167ffffffffffffffff8111828210171561304057613040612fb5565b604052919050565b600082601f83011261305957600080fd5b813567ffffffffffffffff81111561307357613073612fb5565b613086601f8201601f1916602001613017565b81815284602083860101111561309b57600080fd5b816020850160208301376000918101602001919091529392505050565b600082601f8301126130c957600080fd5b8135602067ffffffffffffffff8211156130e5576130e5612fb5565b6130f3818360051b01613017565b82815260069290921b8401810191818101908684111561311257600080fd5b8286015b8481101561315a576040818903121561312f5760008081fd5b613137612fcb565b813561314281612d39565b81528185013585820152835291830191604001613116565b509695505050505050565b600060a0823603121561317757600080fd5b61317f612ff4565b8235815261318f60208401612dd8565b6020820152604083013567ffffffffffffffff808211156131af57600080fd5b6131bb36838701613048565b604084015260608501359150808211156131d457600080fd5b6131e036838701613048565b606084015260808501359150808211156131f957600080fd5b50613206368286016130b8565b60808301525092915050565b60006020828403121561322457600080fd5b81518015158114610c9a57600080fd5b60006020828403121561324657600080fd5b8151610c9a81612d39565b6000604067ffffffffffffffff8516835260208181850152845160a08386015261327e60e0860182612ce1565b905081860151603f198087840301606088015261329b8383612ce1565b88860151888203830160808a01528051808352908601945060009350908501905b808410156132f6576132e282865180516001600160a01b03168252602090810151910152565b9385019360019390930192908601906132bc565b5060608901516001600160a01b031660a08901526080890151888203830160c08a015295506133258187612ce1565b9a9950505050505050505050565b6001600160a01b0385811682528416602082015260a0810161336b604083018580516001600160a01b03168252602090810151910152565b82608083015295945050505050565b634e487b7160e01b600052602160045260246000fd5b634e487b7160e01b600052601260045260246000fd5b8082028115828204841417610bba57610bba612f63565b6000826133da57634e487b7160e01b600052601260045260246000fd5b500490565b6001600160a01b0384811682528316602082015260808101611581604083018480516001600160a01b03168252602090810151910152565b60008251613429818460208701612cbd565b919091019291505056fea26469706673582212202bb42c42d9112d570e4a8f5e53030eee0aa0a081ff9a032e167134570b82bd4464736f6c63430008130033",
    "linkReferences": {},
    "deployedLinkReferences": {}
}